{
  "contractName": "EventContract",
  "abi": [
    {
      "constant": true,
      "inputs": [
        {
          "internalType": "uint256",
          "name": "",
          "type": "uint256"
        }
      ],
      "name": "events",
      "outputs": [
        {
          "internalType": "uint256",
          "name": "id",
          "type": "uint256"
        },
        {
          "internalType": "address",
          "name": "admin",
          "type": "address"
        },
        {
          "internalType": "string",
          "name": "name",
          "type": "string"
        },
        {
          "internalType": "uint256",
          "name": "date",
          "type": "uint256"
        },
        {
          "internalType": "uint256",
          "name": "price",
          "type": "uint256"
        },
        {
          "internalType": "uint256",
          "name": "ticketCount",
          "type": "uint256"
        },
        {
          "internalType": "uint256",
          "name": "ticketRemaining",
          "type": "uint256"
        }
      ],
      "payable": false,
      "stateMutability": "view",
      "type": "function"
    },
    {
      "constant": true,
      "inputs": [],
      "name": "nextId",
      "outputs": [
        {
          "internalType": "uint256",
          "name": "",
          "type": "uint256"
        }
      ],
      "payable": false,
      "stateMutability": "view",
      "type": "function"
    },
    {
      "constant": true,
      "inputs": [
        {
          "internalType": "address",
          "name": "",
          "type": "address"
        },
        {
          "internalType": "uint256",
          "name": "",
          "type": "uint256"
        }
      ],
      "name": "tickets",
      "outputs": [
        {
          "internalType": "uint256",
          "name": "",
          "type": "uint256"
        }
      ],
      "payable": false,
      "stateMutability": "view",
      "type": "function"
    },
    {
      "constant": false,
      "inputs": [
        {
          "internalType": "string",
          "name": "name",
          "type": "string"
        },
        {
          "internalType": "uint256",
          "name": "date",
          "type": "uint256"
        },
        {
          "internalType": "uint256",
          "name": "price",
          "type": "uint256"
        },
        {
          "internalType": "uint256",
          "name": "ticketCount",
          "type": "uint256"
        }
      ],
      "name": "createEvent",
      "outputs": [],
      "payable": false,
      "stateMutability": "nonpayable",
      "type": "function"
    },
    {
      "constant": false,
      "inputs": [
        {
          "internalType": "uint256",
          "name": "id",
          "type": "uint256"
        },
        {
          "internalType": "uint256",
          "name": "quantity",
          "type": "uint256"
        }
      ],
      "name": "buyTicket",
      "outputs": [],
      "payable": true,
      "stateMutability": "payable",
      "type": "function"
    },
    {
      "constant": false,
      "inputs": [
        {
          "internalType": "uint256",
          "name": "eventId",
          "type": "uint256"
        },
        {
          "internalType": "uint256",
          "name": "quantity",
          "type": "uint256"
        },
        {
          "internalType": "address",
          "name": "to",
          "type": "address"
        }
      ],
      "name": "transferTicket",
      "outputs": [],
      "payable": false,
      "stateMutability": "nonpayable",
      "type": "function"
    }
  ],
  "bytecode": "0x608060405234801561001057600080fd5b50610ce5806100206000396000f3fe6080604052600436106100555760003560e01c80630374ab0b1461005a5780630b791430146100fe578063298ec2081461020857806361b8ce8c14610240578063dae7a13c1461026b578063f086a09b146102da575b600080fd5b34801561006657600080fd5b506100fc6004803603608081101561007d57600080fd5b810190808035906020019064010000000081111561009a57600080fd5b8201836020820111156100ac57600080fd5b803590602001918460018302840111640100000000831117156100ce57600080fd5b909192939192939080359060200190929190803590602001909291908035906020019092919050505061033f565b005b34801561010a57600080fd5b506101376004803603602081101561012157600080fd5b8101908080359060200190929190505050610545565b604051808881526020018773ffffffffffffffffffffffffffffffffffffffff1673ffffffffffffffffffffffffffffffffffffffff16815260200180602001868152602001858152602001848152602001838152602001828103825287818151815260200191508051906020019080838360005b838110156101c75780820151818401526020810190506101ac565b50505050905090810190601f1680156101f45780820380516001836020036101000a031916815260200191505b509850505050505050505060405180910390f35b61023e6004803603604081101561021e57600080fd5b81019080803590602001909291908035906020019092919050505061063f565b005b34801561024c57600080fd5b506102556108bc565b6040518082815260200191505060405180910390f35b34801561027757600080fd5b506102c46004803603604081101561028e57600080fd5b81019080803573ffffffffffffffffffffffffffffffffffffffff169060200190929190803590602001909291905050506108c2565b6040518082815260200191505060405180910390f35b3480156102e657600080fd5b5061033d600480360360608110156102fd57600080fd5b810190808035906020019092919080359060200190929190803573ffffffffffffffffffffffffffffffffffffffff1690602001909291905050506108e7565b005b428311610397576040517f08c379a0000000000000000000000000000000000000000000000000000000008152600401808060200182810382526028815260200180610c5b6028913960400191505060405180910390fd5b600081116103f0576040517f08c379a000000000000000000000000000000000000000000000000000000000815260040180806020018281038252602e815260200180610c83602e913960400191505060405180910390fd5b6040518060e0016040528060025481526020013373ffffffffffffffffffffffffffffffffffffffff16815260200186868080601f016020809104026020016040519081016040528093929190818152602001838380828437600081840152601f19601f8201169050808301925050505050505081526020018481526020018381526020018281526020018281525060008060025481526020019081526020016000206000820151816000015560208201518160010160006101000a81548173ffffffffffffffffffffffffffffffffffffffff021916908373ffffffffffffffffffffffffffffffffffffffff1602179055506040820151816002019080519060200190610500929190610b88565b50606082015181600301556080820151816004015560a0820151816005015560c082015181600601559050506002600081548092919060010191905055505050505050565b60006020528060005260406000206000915090508060000154908060010160009054906101000a900473ffffffffffffffffffffffffffffffffffffffff1690806002018054600181600116156101000203166002900480601f01602080910402602001604051908101604052809291908181526020018280546001816001161561010002031660029004801561061d5780601f106105f25761010080835404028352916020019161061d565b820191906000526020600020905b81548152906001019060200180831161060057829003601f168201915b5050505050908060030154908060040154908060050154908060060154905087565b8160008060008381526020019081526020016000206003015414156106cc576040517f08c379a00000000000000000000000000000000000000000000000000000000081526004018080602001828103825260198152602001807f74686973206576656e7420646f6573206e6f742065786973740000000000000081525060200191505060405180910390fd5b82600080828152602001908152602001600020600301544210610757576040517f08c379a00000000000000000000000000000000000000000000000000000000081526004018080602001828103825260118152602001807f6576656e7420686173206578706972656400000000000000000000000000000081525060200191505060405180910390fd5b600080600086815260200190815260200160002090508381600401540234146107cb576040517f08c379a000000000000000000000000000000000000000000000000000000000815260040180806020018281038252602d815260200180610c2e602d913960400191505060405180910390fd5b8381600601541015610845576040517f08c379a00000000000000000000000000000000000000000000000000000000081526004018080602001828103825260168152602001807f6e6f7420656e6f756768207469636b6574206c6566740000000000000000000081525060200191505060405180910390fd5b83816006016000828254039250508190555083600160003373ffffffffffffffffffffffffffffffffffffffff1673ffffffffffffffffffffffffffffffffffffffff1681526020019081526020016000206000878152602001908152602001600020600082825401925050819055505050505050565b60025481565b6001602052816000526040600020602052806000526040600020600091509150505481565b826000806000838152602001908152602001600020600301541415610974576040517f08c379a00000000000000000000000000000000000000000000000000000000081526004018080602001828103825260198152602001807f74686973206576656e7420646f6573206e6f742065786973740000000000000081525060200191505060405180910390fd5b836000808281526020019081526020016000206003015442106109ff576040517f08c379a00000000000000000000000000000000000000000000000000000000081526004018080602001828103825260118152602001807f6576656e7420686173206578706972656400000000000000000000000000000081525060200191505060405180910390fd5b83600160003373ffffffffffffffffffffffffffffffffffffffff1673ffffffffffffffffffffffffffffffffffffffff1681526020019081526020016000206000878152602001908152602001600020541015610ac5576040517f08c379a00000000000000000000000000000000000000000000000000000000081526004018080602001828103825260118152602001807f6e6f7420656e6f756768207469636b657400000000000000000000000000000081525060200191505060405180910390fd5b83600160003373ffffffffffffffffffffffffffffffffffffffff1673ffffffffffffffffffffffffffffffffffffffff16815260200190815260200160002060008781526020019081526020016000206000828254039250508190555083600160008573ffffffffffffffffffffffffffffffffffffffff1673ffffffffffffffffffffffffffffffffffffffff1681526020019081526020016000206000878152602001908152602001600020600082825401925050819055505050505050565b828054600181600116156101000203166002900490600052602060002090601f016020900481019282601f10610bc957805160ff1916838001178555610bf7565b82800160010185558215610bf7579182015b82811115610bf6578251825591602001919060010190610bdb565b5b509050610c049190610c08565b5090565b610c2a91905b80821115610c26576000816000905550600101610c0e565b5090565b9056fe65746865722073656e74206d75737420626520657175616c20746f20746f74616c207469636b657420636f737463616e206f6e6c79206f7267616e697a65206576656e74206174206120667574757265206461746563616e206f6e6c79206f7267616e697a65206576656e742077697468206174206c656173742031207469636b6574a265627a7a7231582011e84f52df8769ee7b7edc249787e96a69cada471db4140c5a49be4664a3d7d064736f6c63430005100032",
  "source": "pragma solidity >=0.4.0 <0.7.0;\n\ncontract EventContract {\n  struct Event {\n    uint id;\n    address admin;\n    string name;\n    uint date;\n    uint price;\n    uint ticketCount;\n    uint ticketRemaining;\n  }\n  mapping(uint => Event) public events;\n  mapping(address => mapping(uint => uint)) public tickets;\n  uint public nextId;\n\n  function createEvent(\n    string calldata name,\n    uint date,\n    uint price,\n    uint ticketCount) \n    external {\n    require(date > now, 'can only organize event at a future date');\n    require(ticketCount > 0, 'can only organize event with at least 1 ticket');\n    events[nextId] = Event(\n      nextId,\n      msg.sender, \n      name, \n      date, \n      price, \n      ticketCount,\n      ticketCount\n    );\n    nextId++;\n  }\n\n  function buyTicket(uint id, uint quantity) \n    eventExist(id) \n    eventNotStarted(id)\n    payable\n    external {\n    Event storage _event = events[id]; //pointer to event\n    require(msg.value == (_event.price * quantity), 'ether sent must be equal to total ticket cost'); \n    require(_event.ticketRemaining >= quantity, 'not enough ticket left');\n    _event.ticketRemaining -= quantity;\n    tickets[msg.sender][id] += quantity;\n  }\n\n  function transferTicket(uint eventId, uint quantity, address to) \n    eventExist(eventId)\n    eventNotStarted(eventId)\n    external {\n      require(tickets[msg.sender][eventId] >= quantity, 'not enough ticket');\n      tickets[msg.sender][eventId] -= quantity;\n      tickets[to][eventId] += quantity;\n  }\n\n  modifier eventExist(uint id) {\n    require(events[id].date != 0, 'this event does not exist');\n    _;\n  }\n  modifier eventNotStarted(uint id) {\n    require(now < events[id].date, 'event has expired');\n    _;\n  }\n}",
  "sourcePath": "/var/www/html/eattheblocks-pro-master/vueDap30/day17_event_organization/contracts/EventContract.sol",
  "compiler": {
    "name": "solc",
    "version": "0.5.16+commit.9c3226ce.Emscripten.clang"
  },
  "schemaVersion": "3.3.3",
  "updatedAt": "2021-01-31T20:15:28.785Z",
  "networkType": "ethereum",
  "devdoc": {
    "methods": {}
  },
  "userdoc": {
    "methods": {}
  }
}